:100000000C9434000C9451000C9451000C94510049
:100010000C9451000C9451000C9451000C9451001C
:100020000C9451000C9451000C9451000C9451000C
:100030000C9451000C9451000C9451000C945100FC
:100040000C9451000C9451000C9467000C945100D6
:100050000C9451000C9451000C9451000C945100DC
:100060000C9451000C94510011241FBECFEFD8E026
:10007000DEBFCDBF11E0A0E0B1E0E4EDFAE002C0E8
:1000800005900D92A231B107D9F721E0A2E1B1E0CC
:1000900001C01D92AB31B207E1F70E9498000C94A9
:1000A00068050C94000087E690E09093C50080936B
:1000B000C40088E98093C10086E08093C20008955F
:1000C0009091C00095FFFCCF8093C60008951F92C9
:1000D0000F920FB60F9211248F93EF93FF9380919D
:1000E000C600813229F4109213011092120118C037
:1000F0008A3021F481E08093120112C0E091130153
:10010000F0E0EC5EFE4F8083809113018F5F80935F
:10011000130180911301843018F081E08093120163
:10012000FF91EF918F910F900FBE0F901F90189538
:10013000CF93DF93CDB7DEB766970FB6F894DEBFE7
:100140000FBECDBF84B1806284B90E945300789401
:10015000809112018823E1F3109212014AE050E0ED
:10016000BE016B5E7F4F84E191E00E941001D62EAC
:10017000C72EB82EA92E8D899E894AE050E0BE0177
:100180006B5E7F4F01960E941001162F072FF82EED
:10019000E92E8D899E894AE050E0BE016B5E7F4F5B
:1001A00001960E941001962E872E782E692E8D8939
:1001B0009E894AE050E060E070E001960E941001E4
:1001C0006F927F928F929F929F938F937F936F9363
:1001D000AF92BF92CF92DF92EF92FF920F931F9355
:1001E00080E091E09F938F93CE0101969F938F9330
:1001F0000E942F020FB6F894DEBF0FBECDBF00E005
:1002000010E004C00E9460000F5F1F4FE1E0F0E0CB
:10021000EC0FFD1FE00FF11F80818111F3CF98CF0C
:10022000A0E0B0E0E6E1F1E00C9423055C016B0195
:100230007A016115710519F0FB0191838083E11446
:10024000F10429F0C7010297839708F0E5C0E501A2
:100250002196F5011081812F90E00E942602892BC2
:1002600011F05E01F4CF1D3229F42196F5011181C0
:1002700001E007C01B3221F4E5012296F50111814E
:1002800000E0E114F10409F1F0E1EF16F10429F4C2
:100290003FC010E3E114F10421F128E0E216F1047B
:1002A00001F154F4E2E0EE16F10421F5812C912CD9
:1002B000A12CB0E4BB2E3EC0FAE0EF16F10439F0F9
:1002C00020E1E216F104B1F430C0103319F1FAE084
:1002D000EF2EF12CACEC8A2E982CA82CACE0BA2E88
:1002E00029C078E0E72EF12C812C912CA12CE0E1A3
:1002F000BE2E20C060E070E080E090E897010F2CF7
:10030000000C440B550B0E94F50449015A0112C020
:10031000103359F488818F7D883509F0BACF19815F
:100320002296026080E1E82EF12C812C912CA12CE8
:1003300068E0B62E40E060E070E0CB0127010F2CB2
:10034000000C66087708FE0150ED352E310E29E0CD
:10035000231570F42FEB210F2A3118F439EC332ECA
:1003600006C02FE9210F2A3118F529EA322E310E65
:10037000232D30E02E153F05DCF447FD16C0861610
:100380009706A806B90670F0A30192010E94E50441
:10039000630D711D811D911D61307105810520E87E
:1003A000920710F04FEF01C041E021961081CBCFB2
:1003B000202F2170C114D10471F0442329F021971A
:1003C000F601D183C08307C001FF19C02297F6014F
:1003D000D183C08314C047FF12C0222329F060E0FC
:1003E00070E080E090E804C06FEF7FEF8FEF9FE751
:1003F00022E230E030931A012093190109C0222330
:1004000081F090958095709561957F4F8F4F9F4FAC
:10041000462F372F282F12C040E030E020E090E038
:100420000DC097FFF5CF82E290E090931A01809380
:1004300019016FEF7FEF8FEF9FE7EACF642F732FE4
:10044000822FCDB7DEB7E1E10C943F0591110C94FA
:100450003204803219F089508550C8F70895AEE013
:10046000B0E0E5E3F2E00C9430050D891E8986E0EA
:100470008C831A8309838FEF9FE79E838D83AE0160
:10048000475E5F4F6F89788DCE0101960E945102C1
:10049000EF81F885E00FF11F10822E96E4E00C94B6
:1004A0004C05ABE0B0E0E7E5F2E00C9422056C010E
:1004B0007B018A01FC0117821682838181FFCCC1F6
:1004C000CE0101963C01F6019381F70193FD8591E0
:1004D00093FF81917F01882309F4BAC1853239F4F1
:1004E00093FD859193FF81917F01853229F4B601B7
:1004F00090E00E944B04E7CF912C212C312CFFE19E
:10050000F315D8F08B3279F038F4803279F08332F9
:10051000A1F4232D20611DC08D3261F0803369F478
:10052000232D216016C0832D8260382EE32DE460D8
:100530003E2E2AC0F32DF8601DC037FC2DC020EDE3
:10054000280F2A3040F08E32B9F436FC81C1232DB9
:100550002064322E19C036FE06C08AE0989E200D17
:100560001124922E11C0EAE02E9E200D1124222E7D
:10057000F32DF0623F2E08C08C3621F4832D806865
:10058000382E02C0883641F4F70193FD859193FF20
:1005900081917F018111B3CF982F9F7D9554933026
:1005A00028F40C5F1F4F9FE399830DC0833631F011
:1005B000833771F0833509F059C021C0F80180817B
:1005C00089830E5F1F4F88248394912C530113C09D
:1005D0002801F2E04F0E511CF801A080B18036FED8
:1005E00003C0692D70E002C06FEF7FEFC5010E946C
:1005F00040044C018201F32DFF773F2E16C02801E5
:1006000022E0420E511CF801A080B18036FE03C0EA
:10061000692D70E002C06FEF7FEFC5010E943504C5
:100620004C01F32DF0683F2E820133FC1BC0822D5C
:1006300090E088169906B0F4B60180E290E00E943E
:100640004B042A94F4CFF50137FC859137FE819154
:100650005F01B60190E00E944B0421102A9421E032
:10066000821A91088114910471F7E8C0843611F060
:10067000893641F5F80137FE07C0608171818281BA
:1006800093810C5F1F4F08C060817181072E000CA1
:10069000880B990B0E5F1F4FF32DFF763F2E97FFB0
:1006A00009C090958095709561957F4F8F4F9F4FB2
:1006B000F0683F2E2AE030E0A3010E948704882ED4
:1006C000861845C0853731F4232D2F7EB22E2AE0BF
:1006D00030E025C0932D997FB92E8F36C1F018F4E4
:1006E000883579F0B5C0803719F0883721F0B0C06F
:1006F000E92FE061BE2EB4FE0DC0FB2DF460BF2ECD
:1007000009C034FE0AC0292F2660B22E06C028E098
:1007100030E005C020E130E002C020E132E0F80125
:10072000B7FE07C060817181828193810C5F1F4F8A
:1007300006C06081718180E090E00E5F1F4FA301D1
:100740000E948704882E8618FB2DFF773F2E36FEE9
:100750000DC0232D2E7FA22E891458F434FE0BC019
:1007600032FC09C0832D8E7EA82E05C0B82CA32C88
:1007700003C0B82C01C0B92CA4FE0FC0FE01E80DC7
:10078000F11D8081803321F49A2D997EA92E09C014
:10079000A2FE06C0B394B39404C08A2D867809F0F3
:1007A000B394A3FC11C0A0FE06C0B21488F4280CB8
:1007B000922C9B180EC0B21460F4B60180E290E057
:1007C0000E944B04B394F7CFB21418F42B1802C054
:1007D000982C212CA4FE10C0B60180E390E00E946A
:1007E0004B04A2FE17C0A1FC03C088E790E002C042
:1007F00088E590E0B6010CC08A2D867859F0A1FEFC
:1008000002C08BE201C080E2A7FC8DE2B60190E05D
:100810000E944B04891438F4B60180E390E00E94F2
:100820004B049A94F7CF8A94F301E80DF11D80816F
:10083000B60190E00E944B048110F5CF222009F40C
:1008400042CEB60180E290E00E944B042A94F6CF9B
:10085000F6018681978102C08FEF9FEF2B96E2E130
:100860000C943E05992788270895FC010590615056
:1008700070400110D8F7809590958E0F9F1F0895B6
:10088000FC016150704001900110D8F7809590955F
:100890008E0F9F1F08950F931F93CF93DF93FB013C
:1008A000238121FD03C08FEF9FEF2CC022FF16C0D4
:1008B00046815781248135814217530744F4A08132
:1008C000B1819D012F5F3F4F318320838C9326811F
:1008D00037812F5F3F4F3783268314C08B01EC0194
:1008E000FB010084F185E02D0995892BE1F6D80103
:1008F00016968D919C911797019617969C938E93BF
:100900001697CE01DF91CF911F910F910895FA01B3
:10091000AA27283051F1203181F1E8946F936E7F3E
:100920006E5F7F4F8F4F9F4FAF4FB1E03ED0B4E02F
:100930003CD0670F781F891F9A1FA11D680F791F70
:100940008A1F911DA11D6A0F711D811D911DA11D81
:1009500020D009F468943F912AE0269F1124301991
:10096000305D3193DEF6CF010895462F4770405D2C
:100970004193B3E00FD0C9F7F6CF462F4F70405DDB
:100980004A3318F0495D31FD4052419302D0A9F736
:10099000EACFB4E0A6959795879577956795BA9530
:1009A000C9F700976105710508959B01AC010A2EF6
:1009B00006945795479537952795BA95C9F7620FCD
:1009C000731F841F951FA01D0895DB018F939F93B4
:1009D0000E941705BF91AF91A29F800D911DA39F0B
:1009E000900DB29F900D11240895A1E21A2EAA1B1A
:1009F000BB1BFD010DC0AA1FBB1FEE1FFF1FA217CF
:100A0000B307E407F50720F0A21BB30BE40BF50BCB
:100A1000661F771F881F991F1A9469F76095709554
:100A2000809590959B01AC01BD01CF0108950E9476
:100A30005905A59F900DB49F900DA49F800D911D09
:100A4000112408952F923F924F925F926F927F925E
:100A50008F929F92AF92BF92CF92DF92EF92FF92CE
:100A60000F931F93CF93DF93CDB7DEB7CA1BDB0B7A
:100A70000FB6F894DEBF0FBECDBF09942A8839881F
:100A800048885F846E847D848C849B84AA84B98426
:100A9000C884DF80EE80FD800C811B81AA81B98132
:100AA000CE0FD11D0FB6F894DEBF0FBECDBFED0146
:100AB0000895A29FB001B39FC001A39F700D811D37
:100AC0001124911DB29F700D811D1124911D089557
:040AD000F894FFCFC8
:100AD40021256C642C256C642C256C642C256C6499
:020AE4000A0006
:00000001FF
