:100000000C9434000C9451000C9451000C94510049
:100010000C9451000C9451000C9451000C9451001C
:100020000C9451000C9451000C9451000C9451000C
:100030000C9451000C9451000C9451000C945100FC
:100040000C9451000C9451000C9476000C945100C7
:100050000C9451000C9451000C9451000C945100DC
:100060000C9451000C94510011241FBECFEFD8E026
:10007000DEBFCDBF11E0A0E0B1E0ECEEF6E002C0E3
:1000800005900D92A230B107D9F722E0A2E0B1E0CD
:1000900001C01D92AD30B207E1F70E949B010C94A4
:1000A00074030C94000087E690E09093C500809361
:1000B000C40088E98093C10086E08093C20008955F
:1000C0009091C00095FFFCCF8093C6000895F894EE
:1000D0000FB6F894A89580916000886180936000C5
:1000E000109260000FBE0C94000008951F920F92B2
:1000F0000FB60F9211240F931F932F933F934F939B
:100100005F936F937F938F939F93AF93BF93EF937F
:10011000FF93CF93DF931F92CDB7DEB78091C600D8
:1001200089832091060130910701232B49F48634FD
:1001300009F4E2C081E0809304010E946700E5C0F9
:1001400020910601309107012130310549F48634B0
:1001500009F4D2C081E0809304010E946700D5C0F9
:1001600020910601309107012230310559F4909118
:100170000001891709F4C0C081E0809304010E9446
:100180006700C3C02091060130910701233031057B
:1001900059F490910101891709F4AEC081E0809370
:1001A00004010E946700B1C020910601309107014F
:1001B0002630310519F540E150E060E070E0CE01F5
:1001C00001960E94CF01DC01CB01880F991FAA1F65
:1001D000BB1F880F991FAA1FBB1F880F991FAA1F3B
:1001E000BB1F880F991FAA1FBB1F80930801909304
:1001F0000901A0930A01B0930B017EC02091060172
:10020000309107012730310519F540E150E060E0F9
:1002100070E0CE0101960E94CF010091080110917B
:10022000090120910A0130910B01DC01CB01802BE7
:10023000912BA22BB32B880F991FAA1FBB1F809352
:10024000080190930901A0930A01B0930B0154C0D7
:1002500020910601309107012830310564F1409169
:10026000020150910301052E000C660B770B0091E3
:1002700008011091090120910A0130910B014017EA
:10028000510762077307BCF4E0910201F09103018A
:10029000E45FFE4F808380910201909103010196FB
:1002A000909303018093020189E090E0909307010D
:1002B0008093060121C020910601309107012A3068
:1002C000310541F48833C1F081E0809304010E943C
:1002D00067001BC020910601309107012B303105CA
:1002E00059F4803331F081E0809304010E9467006B
:1002F0000CC081E080930501809106019091070177
:10030000019690930701809306010F90DF91CF91A2
:10031000FF91EF91BF91AF919F918F917F916F91DD
:100320005F914F913F912F911F910F910F900FBEB1
:100330000F901F90189584B1806284B90E94530079
:100340007894809105018823E1F380910401811163
:10035000F8CFC0E0D0E007C0FE01E45FFE4F80812F
:100360000E9460002196409108015091090160911E
:100370000A0170910B01CE010D2E000CAA0BBB0BD4
:1003800084179507A607B7073CF38AE00E94600030
:10039000109207011092060110920501D2CFA0E041
:1003A000B0E0E5EDF1E00C942F035C016B017A0104
:1003B0006115710519F0FB0191838083E114F1044B
:1003C00029F0C7010297839708F0E5C0E50121965F
:1003D000F5011081812F90E00E94E502892B11F038
:1003E0005E01F4CF1D3229F42196F501118101E05F
:1003F00007C01B3221F4E5012296F501118100E0CE
:10040000E114F10409F1F0E1EF16F10429F43FC021
:1004100010E3E114F10421F128E0E216F10401F106
:1004200054F4E2E0EE16F10421F5812C912CA12C7C
:10043000B0E4BB2E3EC0FAE0EF16F10439F020E143
:10044000E216F104B1F430C0103319F1FAE0EF2EE6
:10045000F12CACEC8A2E982CA82CACE0BA2E29C03A
:1004600078E0E72EF12C812C912CA12CE0E1BE2E1E
:1004700020C060E070E080E090E897010F2C000C55
:10048000440B550B0E94010349015A0112C010335D
:1004900059F488818F7D883509F0BACF1981229669
:1004A000026080E1E82EF12C812C912CA12C68E0D7
:1004B000B62E40E060E070E0CB0127010F2C000C6D
:1004C00066087708FE0150ED352E310E29E0231520
:1004D00070F42FEB210F2A3118F439EC332E06C0BB
:1004E0002FE9210F2A3118F529EA322E310E232D5A
:1004F00030E02E153F05DCF447FD16C08616970642
:10050000A806B90670F0A30192010E94F102630DE2
:10051000711D811D911D61307105810520E89207D3
:1005200010F04FEF01C041E021961081CBCF202F7A
:100530002170C114D10471F0442329F02197F601F0
:10054000D183C08307C001FF19C02297F601D18370
:10055000C08314C047FF12C0222329F060E070E07E
:1005600080E090E804C06FEF7FEF8FEF9FE722E21B
:1005700030E030930C0220930B0209C0222381F05B
:1005800090958095709561957F4F8F4F9F4F462F27
:10059000372F282F12C040E030E020E090E00DC05F
:1005A00097FFF5CF82E290E090930C0280930B02CC
:1005B0006FEF7FEF8FEF9FE7EACF642F732F822FCC
:1005C000CDB7DEB7E1E10C944B0391110C94EE0230
:1005D000803219F089508550C8F7089599278827E7
:1005E0000895DB018F939F930E942303BF91AF91E6
:1005F000A29F800D911DA39F900DB29F900D11247D
:100600000895A1E21A2EAA1BBB1BFD010DC0AA1F53
:10061000BB1FEE1FFF1FA217B307E407F50720F06B
:10062000A21BB30BE40BF50B661F771F881F991FE6
:100630001A9469F760957095809590959B01AC012F
:10064000BD01CF0108950E946503A59F900DB49F41
:10065000900DA49F800D911D112408952F923F921B
:100660004F925F926F927F928F929F92AF92BF92C2
:10067000CF92DF92EF92FF920F931F93CF93DF936E
:10068000CDB7DEB7CA1BDB0B0FB6F894DEBF0FBECB
:10069000CDBF09942A88398848885F846E847D8418
:1006A0008C849B84AA84B984C884DF80EE80FD801A
:1006B0000C811B81AA81B981CE0FD11D0FB6F89490
:1006C000DEBF0FBECDBFED010895A29FB001B39F65
:1006D000C001A39F700D811D1124911DB29F700D4B
:0C06E000811D1124911D0895F894FFCF96
:0206EC003031AB
:00000001FF
