S00C00004C6162342E73726563D5
S11300000C9434000C9451000C9451000C94510045
S11300100C9451000C9451000C9451000C94510018
S11300200C9451000C9451000C9451000C94510008
S11300300C9451000C9451000C9451000C945100F8
S11300400C9451000C9451000C9467000C945100D2
S11300500C9451000C9451000C9451000C945100D8
S11300600C9451000C94510011241FBECFEFD8E022
S1130070DEBFCDBF11E0A0E0B1E0E4E8F6E002C0ED
S113008005900D92A230B107D9F722E0A2E0B1E0C9
S113009001C01D92AC30B207E1F70E946B010C94D1
S11300A040030C94000087E690E09093C500809391
S11300B0C40088E98093C10086E08093C20008955B
S11300C09091C00095FFFCCF8093C60008951F92C5
S11300D00F920FB60F9211240F931F932F933F93F8
S11300E04F935F936F937F938F939F93AF93BF933C
S11300F0EF93FF93CF93DF931F92CDB7DEB7809139
S1130100C60089832091050130910601232B21F437
S1130110863409F0CAC0C0C020910501309106019F
S11301202130310521F4863409F0BFC0B5C02091D7
S11301300501309106012230310529F49091000126
S11301408913B3C0A9C02091050130910601233061
S1130150310529F4909101018913A7C09DC0209114
S11301600501309106012630310519F540E150E0D2
S113017060E070E0CE0101960E949B01DC01CB019E
S1130180880F991FAA1FBB1F880F991FAA1FBB1F87
S1130190880F991FAA1FBB1F880F991FAA1FBB1F77
S11301A08093070190930801A0930901B0930A0179
S11301B073C020910501309106012730310519F5EE
S11301C040E150E060E070E0CE0101960E949B01A6
S11301D000910701109108012091090130910A0151
S11301E0DC01CB01802B912BA22BB32B880F991F01
S11301F0AA1FBB1F8093070190930801A0930901D4
S1130200B0930A0149C020910501309106012830BC
S1130210310564F14091020150910301052E000C57
S1130220660B770B009107011091080120910901D9
S113023030910A014017510762077307BCF4E0913B
S11302400201F0910301E55FFE4F8083809102017A
S1130250909103010196909303018093020189E038
S113026090E0909306018093050116C0209105014A
S1130270309106012A30310519F48833B1F40CC0E9
S113028020910501309106012B30310529F480338A
S113029061F481E08093040180910501909106014D
S11302A0019690930601809305010F90DF91CF9101
S11302B0FF91EF91BF91AF919F918F917F916F913A
S11302C05F914F913F912F911F910F910F900FBE0E
S11302D00F901F90189584B1806284B90E945300D6
S11302E07894809104018823E1F31092060110921E
S11302F00501C0E0D0E007C0FE01E55FFE4F80814C
S11303000E9460002196409107015091080160917C
S1130310090170910A01CE010D2E000CAA0BBB0B32
S113032084179507A607B7073CF38AE00E9460008C
S113033010920401D6CFA0E0B0E0E1EAF1E00C9421
S1130340FB025C016B017A016115710519F0FB0177
S113035091838083E114F10429F0C7010297839704
S113036008F0E5C0E5012196F5011081812F90E0A8
S11303700E94B102892B11F05E01F4CF1D3229F4E1
S11303802196F501118101E007C01B3221F4E5013A
S11303902296F501118100E0E114F10409F1F0E184
S11303A0EF16F10429F43FC010E3E114F10421F144
S11303B028E0E216F10401F154F4E2E0EE16F1044F
S11303C021F5812C912CA12CB0E4BB2E3EC0FAE087
S11303D0EF16F10439F020E1E216F104B1F430C073
S11303E0103319F1FAE0EF2EF12CACEC8A2E982C94
S11303F0A82CACE0BA2E29C078E0E72EF12C812C91
S1130400912CA12CE0E1BE2E20C060E070E080E0E1
S113041090E897010F2C000C440B550B0E94CD0261
S113042049015A0112C0103359F488818F7D8835EF
S113043009F0BACF19812296026080E1E82EF12CEE
S1130440812C912CA12C68E0B62E40E060E070E095
S1130450CB0127010F2C000C66087708FE0150ED34
S1130460352E310E29E0231570F42FEB210F2A319C
S113047018F439EC332E06C02FE9210F2A3118F570
S113048029EA322E310E232D30E02E153F05DCF4FF
S113049047FD16C086169706A806B90670F0A30194
S11304A092010E94BD02630D711D811D911D613079
S11304B07105810520E8920710F04FEF01C041E07B
S11304C021961081CBCF202F2170C114D10471F05B
S11304D0442329F02197F601D183C08307C001FF8B
S11304E019C02297F601D183C08314C047FF12C0FC
S11304F0222329F060E070E080E090E804C06FEF10
S11305007FEF8FEF9FE722E230E030930B022093DE
S11305100A0209C0222381F0909580957095619517
S11305207F4F8F4F9F4F462F372F282F12C040E009
S113053030E020E090E00DC097FFF5CF82E290E03C
S113054090930B0280930A026FEF7FEF8FEF9FE788
S1130550EACF642F732F822FCDB7DEB7E1E10C947D
S1130560170391110C94BA02803219F08950855006
S1130570C8F70895992788270895DB018F939F93DF
S11305800E94EF02BF91AF91A29F800D911DA39F86
S1130590900DB29F900D11240895A1E21A2EAA1B6A
S11305A0BB1BFD010DC0AA1FBB1FEE1FFF1FA2171F
S11305B0B307E407F50720F0A21BB30BE40BF50B1C
S11305C0661F771F881F991F1A9469F760957095A5
S11305D0809590959B01AC01BD01CF0108950E94C7
S11305E03103A59F900DB49F900DA49F800D911D84
S11305F0112408952F923F924F925F926F927F92AF
S11306008F929F92AF92BF92CF92DF92EF92FF921E
S11306100F931F93CF93DF93CDB7DEB7CA1BDB0BCA
S11306200FB6F894DEBF0FBECDBF09942A8839886F
S113063048885F846E847D848C849B84AA84B98476
S1130640C884DF80EE80FD800C811B81AA81B98182
S1130650CE0FD11D0FB6F894DEBF0FBECDBFED0196
S11306600895A29FB001B39FC001A39F700D811D87
S11306701124911DB29F700D811D1124911D0895A7
S1070680F894FFCF18
S105068430310F
S9030000FC
